{
  "contractName": "supplyChain",
  "abi": [
    {
      "constant": false,
      "inputs": [],
      "name": "register",
      "outputs": [],
      "payable": false,
      "stateMutability": "nonpayable",
      "type": "function"
    },
    {
      "constant": true,
      "inputs": [],
      "name": "temp_id",
      "outputs": [
        {
          "name": "",
          "type": "uint256"
        }
      ],
      "payable": false,
      "stateMutability": "view",
      "type": "function"
    },
    {
      "constant": true,
      "inputs": [],
      "name": "getItems",
      "outputs": [
        {
          "name": "",
          "type": "uint256[]"
        },
        {
          "name": "",
          "type": "bytes32[]"
        },
        {
          "name": "",
          "type": "uint256[]"
        },
        {
          "name": "",
          "type": "uint256[]"
        }
      ],
      "payable": false,
      "stateMutability": "view",
      "type": "function"
    },
    {
      "constant": false,
      "inputs": [
        {
          "name": "_itemID",
          "type": "uint256"
        },
        {
          "name": "_orderID",
          "type": "uint256"
        }
      ],
      "name": "confirmReceive",
      "outputs": [],
      "payable": false,
      "stateMutability": "nonpayable",
      "type": "function"
    },
    {
      "constant": false,
      "inputs": [
        {
          "name": "_itemDescription",
          "type": "bytes32"
        },
        {
          "name": "_price",
          "type": "uint256"
        },
        {
          "name": "_inventory",
          "type": "uint256"
        }
      ],
      "name": "addItem",
      "outputs": [],
      "payable": false,
      "stateMutability": "nonpayable",
      "type": "function"
    },
    {
      "constant": false,
      "inputs": [
        {
          "name": "_itemID",
          "type": "uint256"
        },
        {
          "name": "_quantity",
          "type": "uint256"
        }
      ],
      "name": "placeOrder",
      "outputs": [],
      "payable": true,
      "stateMutability": "payable",
      "type": "function"
    },
    {
      "constant": true,
      "inputs": [],
      "name": "viewOrderList",
      "outputs": [
        {
          "name": "",
          "type": "address[]"
        },
        {
          "name": "",
          "type": "uint256[]"
        },
        {
          "name": "",
          "type": "uint256[]"
        },
        {
          "name": "",
          "type": "bool[]"
        }
      ],
      "payable": false,
      "stateMutability": "view",
      "type": "function"
    }
  ],
  "bytecode": "0x60606040526001805560006002556001600355341561001d57600080fd5b6115878061002c6000396000f300606060405260043610610083576000357c0100000000000000000000000000000000000000000000000000000000900463ffffffff1680631aa3a008146100885780632398df651461009d578063410d59cc146100c6578063442b835c146102085780634b7b2fbc14610234578063843f61e21461026d578063e4f2ee781461028e575b600080fd5b341561009357600080fd5b61009b6103d0565b005b34156100a857600080fd5b6100b061057c565b6040518082815260200191505060405180910390f35b34156100d157600080fd5b6100d9610582565b6040518080602001806020018060200180602001858103855289818151815260200191508051906020019060200280838360005b8381101561012857808201518184015260208101905061010d565b50505050905001858103845288818151815260200191508051906020019060200280838360005b8381101561016a57808201518184015260208101905061014f565b50505050905001858103835287818151815260200191508051906020019060200280838360005b838110156101ac578082015181840152602081019050610191565b50505050905001858103825286818151815260200191508051906020019060200280838360005b838110156101ee5780820151818401526020810190506101d3565b505050509050019850505050505050505060405180910390f35b341561021357600080fd5b610232600480803590602001909190803590602001909190505061078f565b005b341561023f57600080fd5b61026b600480803560001916906020019091908035906020019091908035906020019091905050610b5a565b005b61028c6004808035906020019091908035906020019091905050610cc4565b005b341561029957600080fd5b6102a1610ec8565b6040518080602001806020018060200180602001858103855289818151815260200191508051906020019060200280838360005b838110156102f05780820151818401526020810190506102d5565b50505050905001858103845288818151815260200191508051906020019060200280838360005b83811015610332578082015181840152602081019050610317565b50505050905001858103835287818151815260200191508051906020019060200280838360005b83811015610374578082015181840152602081019050610359565b50505050905001858103825286818151815260200191508051906020019060200280838360005b838110156103b657808201518184015260208101905061039b565b505050509050019850505050505050505060405180910390f35b60011515600460003373ffffffffffffffffffffffffffffffffffffffff1673ffffffffffffffffffffffffffffffffffffffff16815260200190815260200160002060020160009054906101000a900460ff161515141561047a57600460003373ffffffffffffffffffffffffffffffffffffffff1673ffffffffffffffffffffffffffffffffffffffff1681526020019081526020016000206000015460058190555061057a565b600154600460003373ffffffffffffffffffffffffffffffffffffffff1673ffffffffffffffffffffffffffffffffffffffff168152602001908152602001600020600001819055506001600081548092919060010191905055506001600460003373ffffffffffffffffffffffffffffffffffffffff1673ffffffffffffffffffffffffffffffffffffffff16815260200190815260200160002060020160006101000a81548160ff021916908315150217905550600460003373ffffffffffffffffffffffffffffffffffffffff1673ffffffffffffffffffffffffffffffffffffffff168152602001908152602001600020600001546005819055505b565b60055481565b61058a6113cf565b6105926113e3565b61059a6113cf565b6105a26113cf565b6105aa6113cf565b6105b26113e3565b6105ba6113cf565b6105c26113cf565b600080805490506040518059106105d65750595b908082528060200260200182016040525094506000805490506040518059106105fc5750595b908082528060200260200182016040525093506000805490506040518059106106225750595b908082528060200260200182016040525092506000805490506040518059106106485750595b90808252806020026020018201604052509150600090505b6000805490508110156107785760008181548110151561067c57fe5b906000526020600020906005020160000154858281518110151561069c57fe5b90602001906020020181815250506000818154811015156106b957fe5b90600052602060002090600502016001015484828151811015156106d957fe5b90602001906020020190600019169081600019168152505060008181548110151561070057fe5b906000526020600020906005020160030154838281518110151561072057fe5b906020019060200201818152505060008181548110151561073d57fe5b906000526020600020906005020160040154828281518110151561075d57fe5b90602001906020020181815250508080600101915050610660565b848484849850985098509850505050505090919293565b6000806000848154811015156107a157fe5b906000526020600020906005020160020160009054906101000a900473ffffffffffffffffffffffffffffffffffffffff169150600090505b600460008373ffffffffffffffffffffffffffffffffffffffff1673ffffffffffffffffffffffffffffffffffffffff16815260200190815260200160002060010180549050811015610b54573373ffffffffffffffffffffffffffffffffffffffff16600460008473ffffffffffffffffffffffffffffffffffffffff1673ffffffffffffffffffffffffffffffffffffffff1681526020019081526020016000206001018281548110151561088d57fe5b906000526020600020906005020160010160009054906101000a900473ffffffffffffffffffffffffffffffffffffffff1673ffffffffffffffffffffffffffffffffffffffff16148015610941575082600460008473ffffffffffffffffffffffffffffffffffffffff1673ffffffffffffffffffffffffffffffffffffffff1681526020019081526020016000206001018281548110151561092d57fe5b906000526020600020906005020160000154145b80156109be575060001515600460008473ffffffffffffffffffffffffffffffffffffffff1673ffffffffffffffffffffffffffffffffffffffff1681526020019081526020016000206001018281548110151561099b57fe5b906000526020600020906005020160040160009054906101000a900460ff161515145b15610b47576001600460008473ffffffffffffffffffffffffffffffffffffffff1673ffffffffffffffffffffffffffffffffffffffff16815260200190815260200160002060010182815481101515610a1457fe5b906000526020600020906005020160040160006101000a81548160ff0219169083151502179055508173ffffffffffffffffffffffffffffffffffffffff166108fc600086815481101515610a6557fe5b906000526020600020906005020160030154600460008673ffffffffffffffffffffffffffffffffffffffff1673ffffffffffffffffffffffffffffffffffffffff16815260200190815260200160002060010184815481101515610ac657fe5b906000526020600020906005020160030154029081150290604051600060405180830381858888f193505050501515610afe57600080fd5b3373ffffffffffffffffffffffffffffffffffffffff166108fc6706f05b59d3b200009081150290604051600060405180830381858888f193505050501515610b4657600080fd5b5b80806001019150506107da565b50505050565b60011515600460003373ffffffffffffffffffffffffffffffffffffffff1673ffffffffffffffffffffffffffffffffffffffff16815260200190815260200160002060020160009054906101000a900460ff161515141515610bbc57600080fd5b60008054806001018281610bd091906113f7565b9160005260206000209060050201600060a0604051908101604052806002548152602001876000191681526020013373ffffffffffffffffffffffffffffffffffffffff168152602001868152602001858152509091909150600082015181600001556020820151816001019060001916905560408201518160020160006101000a81548173ffffffffffffffffffffffffffffffffffffffff021916908373ffffffffffffffffffffffffffffffffffffffff1602179055506060820151816003015560808201518160040155505050600260008154809291906001019190505550600160025403600581905550505050565b60006706f05b59d3b20000600084815481101515610cde57fe5b90600052602060002090600502016003015483020134141515610d0057600080fd5b600083815481101515610d0f57fe5b906000526020600020906005020160020160009054906101000a900473ffffffffffffffffffffffffffffffffffffffff169050600460008273ffffffffffffffffffffffffffffffffffffffff1673ffffffffffffffffffffffffffffffffffffffff1681526020019081526020016000206001018054806001018281610d979190611429565b9160005260206000209060050201600060a06040519081016040528060035481526020013373ffffffffffffffffffffffffffffffffffffffff1681526020018781526020018681526020016000151581525090919091506000820151816000015560208201518160010160006101000a81548173ffffffffffffffffffffffffffffffffffffffff021916908373ffffffffffffffffffffffffffffffffffffffff160217905550604082015181600201556060820151816003015560808201518160040160006101000a81548160ff02191690831515021790555050505060036000815480929190600101919050555081600084815481101515610e9957fe5b906000526020600020906005020160040160008282540392505081905550600160035403600581905550505050565b610ed061145b565b610ed86113cf565b610ee06113cf565b610ee861146f565b610ef061145b565b610ef86113cf565b610f006113cf565b610f0861146f565b600060011515600460003373ffffffffffffffffffffffffffffffffffffffff1673ffffffffffffffffffffffffffffffffffffffff16815260200190815260200160002060020160009054906101000a900460ff161515141515610f6c57600080fd5b600460003373ffffffffffffffffffffffffffffffffffffffff1673ffffffffffffffffffffffffffffffffffffffff16815260200190815260200160002060010180549050604051805910610fbf5750595b90808252806020026020018201604052509450600460003373ffffffffffffffffffffffffffffffffffffffff1673ffffffffffffffffffffffffffffffffffffffff168152602001908152602001600020600101805490506040518059106110255750595b90808252806020026020018201604052509350600460003373ffffffffffffffffffffffffffffffffffffffff1673ffffffffffffffffffffffffffffffffffffffff1681526020019081526020016000206001018054905060405180591061108b5750595b90808252806020026020018201604052509250600460003373ffffffffffffffffffffffffffffffffffffffff1673ffffffffffffffffffffffffffffffffffffffff168152602001908152602001600020600101805490506040518059106110f15750595b90808252806020026020018201604052509150600090505b600460003373ffffffffffffffffffffffffffffffffffffffff1673ffffffffffffffffffffffffffffffffffffffff168152602001908152602001600020600101805490508110156113b857600460003373ffffffffffffffffffffffffffffffffffffffff1673ffffffffffffffffffffffffffffffffffffffff168152602001908152602001600020600101818154811015156111a557fe5b906000526020600020906005020160010160009054906101000a900473ffffffffffffffffffffffffffffffffffffffff1685828151811015156111e557fe5b9060200190602002019073ffffffffffffffffffffffffffffffffffffffff16908173ffffffffffffffffffffffffffffffffffffffff1681525050600460003373ffffffffffffffffffffffffffffffffffffffff1673ffffffffffffffffffffffffffffffffffffffff1681526020019081526020016000206001018181548110151561127057fe5b906000526020600020906005020160020154848281518110151561129057fe5b9060200190602002018181525050600460003373ffffffffffffffffffffffffffffffffffffffff1673ffffffffffffffffffffffffffffffffffffffff168152602001908152602001600020600101818154811015156112ed57fe5b906000526020600020906005020160030154838281518110151561130d57fe5b9060200190602002018181525050600460003373ffffffffffffffffffffffffffffffffffffffff1673ffffffffffffffffffffffffffffffffffffffff1681526020019081526020016000206001018181548110151561136a57fe5b906000526020600020906005020160040160009054906101000a900460ff16828281518110151561139757fe5b90602001906020020190151590811515815250508080600101915050611109565b848484849850985098509850505050505090919293565b602060405190810160405280600081525090565b602060405190810160405280600081525090565b815481835581811511611424576005028160050283600052602060002091820191016114239190611483565b5b505050565b8154818355818115116114565760050281600502836000526020600020918201910161145591906114e9565b5b505050565b602060405190810160405280600081525090565b602060405190810160405280600081525090565b6114e691905b808211156114e25760008082016000905560018201600090556002820160006101000a81549073ffffffffffffffffffffffffffffffffffffffff02191690556003820160009055600482016000905550600501611489565b5090565b90565b61155891905b80821115611554576000808201600090556001820160006101000a81549073ffffffffffffffffffffffffffffffffffffffff0219169055600282016000905560038201600090556004820160006101000a81549060ff0219169055506005016114ef565b5090565b905600a165627a7a72305820d4147a9eeb4e4d7889f82785244b18ed0e07221abb363f0e97e475f303fc8f2e0029",
  "source": "pragma solidity 0.4.18;\n\n//0.4.18 gives error in require, try to get 0.4.24 compiler in truffle\n\ncontract supplyChain{\n    struct order{\n        uint orderID;\n        address buyer;\n        uint itemId;\n        uint quantity;\n        bool doneStatus;\n    }\n    struct person{\n        uint ID;\n        order[] sellOrders;\n        bool registered;\n    }\n    struct item{\n        uint itemID;\n        bytes32 itemDescription;\n        address producer;\n        uint price;\n        uint inventory;\n    }\n    \n    item[] itemList;\n    uint personCount = 1;\n    uint itemCount = 0;\n    uint orderCount = 1;\n    mapping (address => person) personDetails;\n    uint public temp_id;\n    \n    function register() public {\n        if(personDetails[msg.sender].registered==true){\n            temp_id = personDetails[msg.sender].ID;\n        }\n         else{\n             personDetails[msg.sender].ID = personCount;\n             personCount++;\n             personDetails[msg.sender].registered=true;\n            temp_id = personDetails[msg.sender].ID;\n         }\n    }\n    \n    modifier onlyRegistered () {\n      require(personDetails[msg.sender].registered == true);\n      _;\n    }\n    \n    function addItem(bytes32 _itemDescription,uint _price,uint _inventory) public onlyRegistered{\n        itemList.push(item({itemID:itemCount,itemDescription:_itemDescription,producer:msg.sender,price:_price,inventory:_inventory}));\n        itemCount++;\n        temp_id = itemCount-1;\n    }\n    \n    function getItems() public view returns(uint[],bytes32[],uint[],uint[]){\n        uint[] memory a = new uint[](itemList.length);\n        bytes32[] memory b = new bytes32[](itemList.length);\n        uint[] memory c = new uint[](itemList.length);\n        uint[] memory d = new uint[](itemList.length);\n        for (uint i = 0; i < itemList.length; i++)\n            {\n                a[i] = itemList[i].itemID;\n                b[i] = itemList[i].itemDescription;\n                c[i] = itemList[i].price;\n                d[i] = itemList[i].inventory;\n            }\n        return (a,b,c,d);\n    }\n    \n    function placeOrder(uint _itemID,uint _quantity) public payable {\n        //0.5 extra for safety escrow\n        require(msg.value  == (_quantity*itemList[_itemID].price)+500000000000000000);\n        address seller = itemList[_itemID].producer;\n        personDetails[seller].sellOrders.push(order({orderID:orderCount,buyer:msg.sender,itemId:_itemID,quantity:_quantity,doneStatus:false}));\n        orderCount++;\n        itemList[_itemID].inventory -=_quantity;\n        temp_id = orderCount-1;\n    } \n    \n    function viewOrderList() public view onlyRegistered returns(address[],uint[],uint[],bool[]){\n        address[] memory a = new address[](personDetails[msg.sender].sellOrders.length);\n        uint[] memory b = new uint[](personDetails[msg.sender].sellOrders.length);\n        uint[] memory c = new uint[](personDetails[msg.sender].sellOrders.length);\n        bool[] memory d = new bool[](personDetails[msg.sender].sellOrders.length);\n        for (uint i = 0; i < personDetails[msg.sender].sellOrders.length; i++)\n            {\n                a[i] = personDetails[msg.sender].sellOrders[i].buyer;\n                b[i] = personDetails[msg.sender].sellOrders[i].itemId;\n                c[i] = personDetails[msg.sender].sellOrders[i].quantity;\n                d[i] = personDetails[msg.sender].sellOrders[i].doneStatus;\n            }\n        return (a,b,c,d);\n    }\n    \n    function confirmReceive(uint _itemID,uint _orderID) public{\n        address addr = itemList[_itemID].producer;\n        for(uint i=0;i<personDetails[addr].sellOrders.length;i++){\n            if(personDetails[addr].sellOrders[i].buyer==msg.sender && personDetails[addr].sellOrders[i].orderID == _orderID && personDetails[addr].sellOrders[i].doneStatus == false){\n                personDetails[addr].sellOrders[i].doneStatus = true;\n                addr.transfer((personDetails[addr].sellOrders[i].quantity)*(itemList[_itemID].price));\n                msg.sender.transfer(500000000000000000);\n            }\n        }\n    }\n}\n",
  "sourcePath": "/home/ubuntu/ethereum-dev/supplyChain2/pet-shop-box/contracts/supplyChain.sol",
  "compiler": {
    "name": "solc",
    "version": "0.4.18+commit.9cf6e910.Emscripten.clang"
  },
  "schemaVersion": "1.0.1",
  "updatedAt": "2020-07-24T09:04:56.422Z"
}