{
  "contractName": "supplyChain",
  "abi": [
    {
      "constant": false,
      "inputs": [],
      "name": "register",
      "outputs": [],
      "payable": false,
      "stateMutability": "nonpayable",
      "type": "function"
    },
    {
      "constant": true,
      "inputs": [],
      "name": "temp_id",
      "outputs": [
        {
          "name": "",
          "type": "uint256"
        }
      ],
      "payable": false,
      "stateMutability": "view",
      "type": "function"
    },
    {
      "constant": true,
      "inputs": [],
      "name": "getItems",
      "outputs": [
        {
          "name": "",
          "type": "uint256[]"
        },
        {
          "name": "",
          "type": "bytes32[]"
        },
        {
          "name": "",
          "type": "uint256[]"
        },
        {
          "name": "",
          "type": "uint256[]"
        }
      ],
      "payable": false,
      "stateMutability": "view",
      "type": "function"
    },
    {
      "constant": false,
      "inputs": [
        {
          "name": "_itemID",
          "type": "uint256"
        },
        {
          "name": "_orderID",
          "type": "uint256"
        }
      ],
      "name": "confirmReceive",
      "outputs": [],
      "payable": false,
      "stateMutability": "nonpayable",
      "type": "function"
    },
    {
      "constant": false,
      "inputs": [
        {
          "name": "_itemDescription",
          "type": "bytes32"
        },
        {
          "name": "_price",
          "type": "uint256"
        },
        {
          "name": "_inventory",
          "type": "uint256"
        }
      ],
      "name": "addItem",
      "outputs": [],
      "payable": false,
      "stateMutability": "nonpayable",
      "type": "function"
    },
    {
      "constant": false,
      "inputs": [
        {
          "name": "_itemID",
          "type": "uint256"
        },
        {
          "name": "_price",
          "type": "uint256"
        },
        {
          "name": "_inventory",
          "type": "uint256"
        }
      ],
      "name": "updateItem",
      "outputs": [],
      "payable": false,
      "stateMutability": "nonpayable",
      "type": "function"
    },
    {
      "constant": true,
      "inputs": [],
      "name": "viewPlacedOrders",
      "outputs": [
        {
          "name": "",
          "type": "uint256[]"
        },
        {
          "name": "",
          "type": "uint256[]"
        },
        {
          "name": "",
          "type": "uint256[]"
        },
        {
          "name": "",
          "type": "bool[]"
        }
      ],
      "payable": false,
      "stateMutability": "view",
      "type": "function"
    },
    {
      "constant": false,
      "inputs": [
        {
          "name": "_itemID",
          "type": "uint256"
        },
        {
          "name": "_quantity",
          "type": "uint256"
        }
      ],
      "name": "placeOrder",
      "outputs": [],
      "payable": true,
      "stateMutability": "payable",
      "type": "function"
    },
    {
      "constant": true,
      "inputs": [],
      "name": "viewOrderList",
      "outputs": [
        {
          "name": "",
          "type": "address[]"
        },
        {
          "name": "",
          "type": "uint256[]"
        },
        {
          "name": "",
          "type": "uint256[]"
        },
        {
          "name": "",
          "type": "bool[]"
        }
      ],
      "payable": false,
      "stateMutability": "view",
      "type": "function"
    }
  ],
  "bytecode": "0x60606040526001805560006002556001600355341561001d57600080fd5b61200a8061002c6000396000f300606060405260043610610099576000357c0100000000000000000000000000000000000000000000000000000000900463ffffffff1680631aa3a0081461009e5780632398df65146100b3578063410d59cc146100dc578063442b835c1461021e5780634b7b2fbc1461024a578063539447d4146102835780637f1bb1a8146102b8578063843f61e2146103fa578063e4f2ee781461041b575b600080fd5b34156100a957600080fd5b6100b161055d565b005b34156100be57600080fd5b6100c6610709565b6040518082815260200191505060405180910390f35b34156100e757600080fd5b6100ef61070f565b6040518080602001806020018060200180602001858103855289818151815260200191508051906020019060200280838360005b8381101561013e578082015181840152602081019050610123565b50505050905001858103845288818151815260200191508051906020019060200280838360005b83811015610180578082015181840152602081019050610165565b50505050905001858103835287818151815260200191508051906020019060200280838360005b838110156101c25780820151818401526020810190506101a7565b50505050905001858103825286818151815260200191508051906020019060200280838360005b838110156102045780820151818401526020810190506101e9565b505050509050019850505050505050505060405180910390f35b341561022957600080fd5b610248600480803590602001909190803590602001909190505061091c565b005b341561025557600080fd5b610281600480803560001916906020019091908035906020019091908035906020019091905050610f5e565b005b341561028e57600080fd5b6102b660048080359060200190919080359060200190919080359060200190919050506110c8565b005b34156102c357600080fd5b6102cb61118d565b6040518080602001806020018060200180602001858103855289818151815260200191508051906020019060200280838360005b8381101561031a5780820151818401526020810190506102ff565b50505050905001858103845288818151815260200191508051906020019060200280838360005b8381101561035c578082015181840152602081019050610341565b50505050905001858103835287818151815260200191508051906020019060200280838360005b8381101561039e578082015181840152602081019050610383565b50505050905001858103825286818151815260200191508051906020019060200280838360005b838110156103e05780820151818401526020810190506103c5565b505050509050019850505050505050505060405180910390f35b61041960048080359060200190919080359060200190919050506115e4565b005b341561042657600080fd5b61042e61194b565b6040518080602001806020018060200180602001858103855289818151815260200191508051906020019060200280838360005b8381101561047d578082015181840152602081019050610462565b50505050905001858103845288818151815260200191508051906020019060200280838360005b838110156104bf5780820151818401526020810190506104a4565b50505050905001858103835287818151815260200191508051906020019060200280838360005b838110156105015780820151818401526020810190506104e6565b50505050905001858103825286818151815260200191508051906020019060200280838360005b83811015610543578082015181840152602081019050610528565b505050509050019850505050505050505060405180910390f35b60011515600460003373ffffffffffffffffffffffffffffffffffffffff1673ffffffffffffffffffffffffffffffffffffffff16815260200190815260200160002060030160009054906101000a900460ff161515141561060757600460003373ffffffffffffffffffffffffffffffffffffffff1673ffffffffffffffffffffffffffffffffffffffff16815260200190815260200160002060000154600581905550610707565b600154600460003373ffffffffffffffffffffffffffffffffffffffff1673ffffffffffffffffffffffffffffffffffffffff168152602001908152602001600020600001819055506001600081548092919060010191905055506001600460003373ffffffffffffffffffffffffffffffffffffffff1673ffffffffffffffffffffffffffffffffffffffff16815260200190815260200160002060030160006101000a81548160ff021916908315150217905550600460003373ffffffffffffffffffffffffffffffffffffffff1673ffffffffffffffffffffffffffffffffffffffff168152602001908152602001600020600001546005819055505b565b60055481565b610717611e52565b61071f611e66565b610727611e52565b61072f611e52565b610737611e52565b61073f611e66565b610747611e52565b61074f611e52565b600080805490506040518059106107635750595b908082528060200260200182016040525094506000805490506040518059106107895750595b908082528060200260200182016040525093506000805490506040518059106107af5750595b908082528060200260200182016040525092506000805490506040518059106107d55750595b90808252806020026020018201604052509150600090505b6000805490508110156109055760008181548110151561080957fe5b906000526020600020906005020160000154858281518110151561082957fe5b906020019060200201818152505060008181548110151561084657fe5b906000526020600020906005020160010154848281518110151561086657fe5b90602001906020020190600019169081600019168152505060008181548110151561088d57fe5b90600052602060002090600502016003015483828151811015156108ad57fe5b90602001906020020181815250506000818154811015156108ca57fe5b90600052602060002090600502016004015482828151811015156108ea57fe5b906020019060200201818152505080806001019150506107ed565b848484849850985098509850505050505090919293565b6000806000808581548110151561092f57fe5b906000526020600020906005020160020160009054906101000a900473ffffffffffffffffffffffffffffffffffffffff169250600091505b600460008473ffffffffffffffffffffffffffffffffffffffff1673ffffffffffffffffffffffffffffffffffffffff16815260200190815260200160002060010180549050821015610ce2573373ffffffffffffffffffffffffffffffffffffffff16600460008573ffffffffffffffffffffffffffffffffffffffff1673ffffffffffffffffffffffffffffffffffffffff16815260200190815260200160002060010183815481101515610a1b57fe5b906000526020600020906005020160010160009054906101000a900473ffffffffffffffffffffffffffffffffffffffff1673ffffffffffffffffffffffffffffffffffffffff16148015610acf575083600460008573ffffffffffffffffffffffffffffffffffffffff1673ffffffffffffffffffffffffffffffffffffffff16815260200190815260200160002060010183815481101515610abb57fe5b906000526020600020906005020160000154145b8015610b4c575060001515600460008573ffffffffffffffffffffffffffffffffffffffff1673ffffffffffffffffffffffffffffffffffffffff16815260200190815260200160002060010183815481101515610b2957fe5b906000526020600020906005020160040160009054906101000a900460ff161515145b15610cd5576001600460008573ffffffffffffffffffffffffffffffffffffffff1673ffffffffffffffffffffffffffffffffffffffff16815260200190815260200160002060010183815481101515610ba257fe5b906000526020600020906005020160040160006101000a81548160ff0219169083151502179055508273ffffffffffffffffffffffffffffffffffffffff166108fc600087815481101515610bf357fe5b906000526020600020906005020160030154600460008773ffffffffffffffffffffffffffffffffffffffff1673ffffffffffffffffffffffffffffffffffffffff16815260200190815260200160002060010185815481101515610c5457fe5b906000526020600020906005020160030154029081150290604051600060405180830381858888f193505050501515610c8c57600080fd5b3373ffffffffffffffffffffffffffffffffffffffff166108fc6706f05b59d3b200009081150290604051600060405180830381858888f193505050501515610cd457600080fd5b5b8180600101925050610968565b600090505b600460003373ffffffffffffffffffffffffffffffffffffffff1673ffffffffffffffffffffffffffffffffffffffff16815260200190815260200160002060020180549050811015610f57573373ffffffffffffffffffffffffffffffffffffffff16600460003373ffffffffffffffffffffffffffffffffffffffff1673ffffffffffffffffffffffffffffffffffffffff16815260200190815260200160002060020182815481101515610d9a57fe5b906000526020600020906005020160010160009054906101000a900473ffffffffffffffffffffffffffffffffffffffff1673ffffffffffffffffffffffffffffffffffffffff16148015610e4e575083600460003373ffffffffffffffffffffffffffffffffffffffff1673ffffffffffffffffffffffffffffffffffffffff16815260200190815260200160002060020182815481101515610e3a57fe5b906000526020600020906005020160000154145b8015610ecb575060001515600460003373ffffffffffffffffffffffffffffffffffffffff1673ffffffffffffffffffffffffffffffffffffffff16815260200190815260200160002060020182815481101515610ea857fe5b906000526020600020906005020160040160009054906101000a900460ff161515145b15610f4a576001600460003373ffffffffffffffffffffffffffffffffffffffff1673ffffffffffffffffffffffffffffffffffffffff16815260200190815260200160002060020182815481101515610f2157fe5b906000526020600020906005020160040160006101000a81548160ff0219169083151502179055505b8080600101915050610ce7565b5050505050565b60011515600460003373ffffffffffffffffffffffffffffffffffffffff1673ffffffffffffffffffffffffffffffffffffffff16815260200190815260200160002060030160009054906101000a900460ff161515141515610fc057600080fd5b60008054806001018281610fd49190611e7a565b9160005260206000209060050201600060a0604051908101604052806002548152602001876000191681526020013373ffffffffffffffffffffffffffffffffffffffff168152602001868152602001858152509091909150600082015181600001556020820151816001019060001916905560408201518160020160006101000a81548173ffffffffffffffffffffffffffffffffffffffff021916908373ffffffffffffffffffffffffffffffffffffffff1602179055506060820151816003015560808201518160040155505050600260008154809291906001019190505550600160025403600581905550505050565b60011515600460003373ffffffffffffffffffffffffffffffffffffffff1673ffffffffffffffffffffffffffffffffffffffff16815260200190815260200160002060030160009054906101000a900460ff16151514151561112a57600080fd5b8060008481548110151561113a57fe5b906000526020600020906005020160040160008282540192505081905550600082141515611188578160008481548110151561117257fe5b9060005260206000209060050201600301819055505b505050565b611195611e52565b61119d611e52565b6111a5611e52565b6111ad611eac565b6111b5611e52565b6111bd611e52565b6111c5611e52565b6111cd611eac565b6000600460003373ffffffffffffffffffffffffffffffffffffffff1673ffffffffffffffffffffffffffffffffffffffff168152602001908152602001600020600201805490506040518059106112225750595b90808252806020026020018201604052509450600460003373ffffffffffffffffffffffffffffffffffffffff1673ffffffffffffffffffffffffffffffffffffffff168152602001908152602001600020600201805490506040518059106112885750595b90808252806020026020018201604052509350600460003373ffffffffffffffffffffffffffffffffffffffff1673ffffffffffffffffffffffffffffffffffffffff168152602001908152602001600020600201805490506040518059106112ee5750595b90808252806020026020018201604052509250600460003373ffffffffffffffffffffffffffffffffffffffff1673ffffffffffffffffffffffffffffffffffffffff168152602001908152602001600020600201805490506040518059106113545750595b90808252806020026020018201604052509150600090505b600460003373ffffffffffffffffffffffffffffffffffffffff1673ffffffffffffffffffffffffffffffffffffffff168152602001908152602001600020600201805490508110156115cd57600460003373ffffffffffffffffffffffffffffffffffffffff1673ffffffffffffffffffffffffffffffffffffffff1681526020019081526020016000206002018181548110151561140857fe5b906000526020600020906005020160000154858281518110151561142857fe5b9060200190602002018181525050600460003373ffffffffffffffffffffffffffffffffffffffff1673ffffffffffffffffffffffffffffffffffffffff1681526020019081526020016000206002018181548110151561148557fe5b90600052602060002090600502016002015484828151811015156114a557fe5b9060200190602002018181525050600460003373ffffffffffffffffffffffffffffffffffffffff1673ffffffffffffffffffffffffffffffffffffffff1681526020019081526020016000206002018181548110151561150257fe5b906000526020600020906005020160030154838281518110151561152257fe5b9060200190602002018181525050600460003373ffffffffffffffffffffffffffffffffffffffff1673ffffffffffffffffffffffffffffffffffffffff1681526020019081526020016000206002018181548110151561157f57fe5b906000526020600020906005020160040160009054906101000a900460ff1682828151811015156115ac57fe5b9060200190602002019015159081151581525050808060010191505061136c565b848484849850985098509850505050505090919293565b60006706f05b59d3b200006000848154811015156115fe57fe5b9060005260206000209060050201600301548302013414151561162057600080fd5b60008381548110151561162f57fe5b906000526020600020906005020160040154821115151561164f57600080fd5b60008381548110151561165e57fe5b906000526020600020906005020160020160009054906101000a900473ffffffffffffffffffffffffffffffffffffffff169050600460008273ffffffffffffffffffffffffffffffffffffffff1673ffffffffffffffffffffffffffffffffffffffff16815260200190815260200160002060010180548060010182816116e69190611ec0565b9160005260206000209060050201600060a06040519081016040528060035481526020013373ffffffffffffffffffffffffffffffffffffffff1681526020018781526020018681526020016000151581525090919091506000820151816000015560208201518160010160006101000a81548173ffffffffffffffffffffffffffffffffffffffff021916908373ffffffffffffffffffffffffffffffffffffffff160217905550604082015181600201556060820151816003015560808201518160040160006101000a81548160ff021916908315150217905550505050600460003373ffffffffffffffffffffffffffffffffffffffff1673ffffffffffffffffffffffffffffffffffffffff168152602001908152602001600020600201805480600101828161181a9190611ec0565b9160005260206000209060050201600060a06040519081016040528060035481526020013373ffffffffffffffffffffffffffffffffffffffff1681526020018781526020018681526020016000151581525090919091506000820151816000015560208201518160010160006101000a81548173ffffffffffffffffffffffffffffffffffffffff021916908373ffffffffffffffffffffffffffffffffffffffff160217905550604082015181600201556060820151816003015560808201518160040160006101000a81548160ff0219169083151502179055505050506003600081548092919060010191905055508160008481548110151561191c57fe5b906000526020600020906005020160040160008282540392505081905550600160035403600581905550505050565b611953611ef2565b61195b611e52565b611963611e52565b61196b611eac565b611973611ef2565b61197b611e52565b611983611e52565b61198b611eac565b600060011515600460003373ffffffffffffffffffffffffffffffffffffffff1673ffffffffffffffffffffffffffffffffffffffff16815260200190815260200160002060030160009054906101000a900460ff1615151415156119ef57600080fd5b600460003373ffffffffffffffffffffffffffffffffffffffff1673ffffffffffffffffffffffffffffffffffffffff16815260200190815260200160002060010180549050604051805910611a425750595b90808252806020026020018201604052509450600460003373ffffffffffffffffffffffffffffffffffffffff1673ffffffffffffffffffffffffffffffffffffffff16815260200190815260200160002060010180549050604051805910611aa85750595b90808252806020026020018201604052509350600460003373ffffffffffffffffffffffffffffffffffffffff1673ffffffffffffffffffffffffffffffffffffffff16815260200190815260200160002060010180549050604051805910611b0e5750595b90808252806020026020018201604052509250600460003373ffffffffffffffffffffffffffffffffffffffff1673ffffffffffffffffffffffffffffffffffffffff16815260200190815260200160002060010180549050604051805910611b745750595b90808252806020026020018201604052509150600090505b600460003373ffffffffffffffffffffffffffffffffffffffff1673ffffffffffffffffffffffffffffffffffffffff16815260200190815260200160002060010180549050811015611e3b57600460003373ffffffffffffffffffffffffffffffffffffffff1673ffffffffffffffffffffffffffffffffffffffff16815260200190815260200160002060010181815481101515611c2857fe5b906000526020600020906005020160010160009054906101000a900473ffffffffffffffffffffffffffffffffffffffff168582815181101515611c6857fe5b9060200190602002019073ffffffffffffffffffffffffffffffffffffffff16908173ffffffffffffffffffffffffffffffffffffffff1681525050600460003373ffffffffffffffffffffffffffffffffffffffff1673ffffffffffffffffffffffffffffffffffffffff16815260200190815260200160002060010181815481101515611cf357fe5b9060005260206000209060050201600201548482815181101515611d1357fe5b9060200190602002018181525050600460003373ffffffffffffffffffffffffffffffffffffffff1673ffffffffffffffffffffffffffffffffffffffff16815260200190815260200160002060010181815481101515611d7057fe5b9060005260206000209060050201600301548382815181101515611d9057fe5b9060200190602002018181525050600460003373ffffffffffffffffffffffffffffffffffffffff1673ffffffffffffffffffffffffffffffffffffffff16815260200190815260200160002060010181815481101515611ded57fe5b906000526020600020906005020160040160009054906101000a900460ff168282815181101515611e1a57fe5b90602001906020020190151590811515815250508080600101915050611b8c565b848484849850985098509850505050505090919293565b602060405190810160405280600081525090565b602060405190810160405280600081525090565b815481835581811511611ea757600502816005028360005260206000209182019101611ea69190611f06565b5b505050565b602060405190810160405280600081525090565b815481835581811511611eed57600502816005028360005260206000209182019101611eec9190611f6c565b5b505050565b602060405190810160405280600081525090565b611f6991905b80821115611f655760008082016000905560018201600090556002820160006101000a81549073ffffffffffffffffffffffffffffffffffffffff02191690556003820160009055600482016000905550600501611f0c565b5090565b90565b611fdb91905b80821115611fd7576000808201600090556001820160006101000a81549073ffffffffffffffffffffffffffffffffffffffff0219169055600282016000905560038201600090556004820160006101000a81549060ff021916905550600501611f72565b5090565b905600a165627a7a723058203ea300b5f2696d957b7cac1e24c2715ccaf1db9929fe99214c430a205209af720029",
  "source": "pragma solidity 0.4.18;\n\n//0.4.18 gives error in require, try to get 0.4.24 compiler in truffle\n\ncontract supplyChain{\n    struct order{\n        uint orderID;\n        address buyer;\n        uint itemId;\n        uint quantity;\n        bool doneStatus;\n    }\n    struct person{\n        uint ID;\n        order[] sellOrders;\n        order[] placedOrders;\n        bool registered;\n    }\n    struct item{\n        uint itemID;\n        bytes32 itemDescription;\n        address producer;\n        uint price;\n        uint inventory;\n    }\n    \n    item[] itemList;\n    uint personCount = 1;\n    uint itemCount = 0;\n    uint orderCount = 1;\n    mapping (address => person) personDetails;\n    uint public temp_id;\n    \n    function register() public {\n        if(personDetails[msg.sender].registered==true){\n            temp_id = personDetails[msg.sender].ID;\n        }\n         else{\n             personDetails[msg.sender].ID = personCount;\n             personCount++;\n             personDetails[msg.sender].registered=true;\n            temp_id = personDetails[msg.sender].ID;\n         }\n    }\n    \n    modifier onlyRegistered () {\n      require(personDetails[msg.sender].registered == true);\n      _;\n    }\n    \n    function addItem(bytes32 _itemDescription,uint _price,uint _inventory) public onlyRegistered{\n        itemList.push(item({itemID:itemCount,itemDescription:_itemDescription,producer:msg.sender,price:_price,inventory:_inventory}));\n        itemCount++;\n        temp_id = itemCount-1;\n    }\n    function updateItem(uint _itemID,uint _price,uint _inventory) public onlyRegistered{\n        itemList[_itemID].inventory += _inventory;\n        if(_price!=0){\n            itemList[_itemID].price = _price;\n        }\n    }\n    \n    function getItems() public view returns(uint[],bytes32[],uint[],uint[]){\n        uint[] memory a = new uint[](itemList.length);\n        bytes32[] memory b = new bytes32[](itemList.length);\n        uint[] memory c = new uint[](itemList.length);\n        uint[] memory d = new uint[](itemList.length);\n        for (uint i = 0; i < itemList.length; i++)\n            {\n                a[i] = itemList[i].itemID;\n                b[i] = itemList[i].itemDescription;\n                c[i] = itemList[i].price;\n                d[i] = itemList[i].inventory;\n            }\n        return (a,b,c,d);\n    }\n    \n    function placeOrder(uint _itemID,uint _quantity) public payable {\n        //0.5 extra for safety escrow\n        require(msg.value  == (_quantity*itemList[_itemID].price)+500000000000000000);\n        require(_quantity<=itemList[_itemID].inventory);\n        address seller = itemList[_itemID].producer;\n        personDetails[seller].sellOrders.push(order({orderID:orderCount,buyer:msg.sender,itemId:_itemID,quantity:_quantity,doneStatus:false}));\n        personDetails[msg.sender].placedOrders.push(order({orderID:orderCount,buyer:msg.sender,itemId:_itemID,quantity:_quantity,doneStatus:false}));\n        orderCount++;\n        itemList[_itemID].inventory -=_quantity;\n        temp_id = orderCount-1;\n    } \n    \n    function viewPlacedOrders() public view returns(uint[],uint[],uint[],bool[]){\n        uint[] memory a = new uint[](personDetails[msg.sender].placedOrders.length);\n        uint[] memory b = new uint[](personDetails[msg.sender].placedOrders.length);\n        uint[] memory c = new uint[](personDetails[msg.sender].placedOrders.length);\n        bool[] memory d = new bool[](personDetails[msg.sender].placedOrders.length);\n        for (uint i = 0; i < personDetails[msg.sender].placedOrders.length; i++)\n            {\n                a[i] = personDetails[msg.sender].placedOrders[i].orderID;\n                b[i] = personDetails[msg.sender].placedOrders[i].itemId;\n                c[i] = personDetails[msg.sender].placedOrders[i].quantity;\n                d[i] = personDetails[msg.sender].placedOrders[i].doneStatus;\n            }\n         return (a,b,c,d);\n    }\n    \n    function viewOrderList() public view onlyRegistered returns(address[],uint[],uint[],bool[]){\n        address[] memory a = new address[](personDetails[msg.sender].sellOrders.length);\n        uint[] memory b = new uint[](personDetails[msg.sender].sellOrders.length);\n        uint[] memory c = new uint[](personDetails[msg.sender].sellOrders.length);\n        bool[] memory d = new bool[](personDetails[msg.sender].sellOrders.length);\n        for (uint i = 0; i < personDetails[msg.sender].sellOrders.length; i++)\n            {\n                a[i] = personDetails[msg.sender].sellOrders[i].buyer;\n                b[i] = personDetails[msg.sender].sellOrders[i].itemId;\n                c[i] = personDetails[msg.sender].sellOrders[i].quantity;\n                d[i] = personDetails[msg.sender].sellOrders[i].doneStatus;\n            }\n        return (a,b,c,d);\n    }\n    \n    function confirmReceive(uint _itemID,uint _orderID) public{\n        address addr = itemList[_itemID].producer;\n        for(uint i=0;i<personDetails[addr].sellOrders.length;i++){\n            if(personDetails[addr].sellOrders[i].buyer==msg.sender && personDetails[addr].sellOrders[i].orderID == _orderID && personDetails[addr].sellOrders[i].doneStatus == false){\n                personDetails[addr].sellOrders[i].doneStatus = true;\n                addr.transfer((personDetails[addr].sellOrders[i].quantity)*(itemList[_itemID].price));\n                msg.sender.transfer(500000000000000000);\n            }\n        }\n        for(uint j=0;j<personDetails[msg.sender].placedOrders.length;j++){\n            if(personDetails[msg.sender].placedOrders[j].buyer==msg.sender && personDetails[msg.sender].placedOrders[j].orderID == _orderID && personDetails[msg.sender].placedOrders[j].doneStatus == false){\n                personDetails[msg.sender].placedOrders[j].doneStatus = true;\n            }\n        }\n    }\n}\n",
  "sourcePath": "/home/ubuntu/ethereum-dev/supplyChain2/supplyChain/contracts/supplyChain.sol",
  "compiler": {
    "name": "solc",
    "version": "0.4.18+commit.9cf6e910.Emscripten.clang"
  },
  "schemaVersion": "1.0.1",
  "updatedAt": "2020-07-31T19:12:36.571Z"
}